:020000040800F2
:10000000FF4F0020311C0008791C0008791C0008F3
:10001000791C0008791C0008791C00080000000009
:10002000000000000000000000000000791C000833
:10003000791C000800000000791C0008791C0008E9
:10004000791C0008791C0008791C0008791C00083C
:10005000791C0008791C0008791C0008791C00082C
:10006000791C0008791C0008791C0008791C00081C
:10007000791C0008791C0008791C0008791C00080C
:10008000791C0008791C0008791C0008791C0008FC
:10009000791C0008791C0008791C0008791C0008EC
:1000A000791C0008791C0008791C0008791C0008DC
:1000B000791C0008791C0008791C0008791C0008CC
:1000C000791C0008791C0008791C0008791C0008BC
:1000D000791C0008791C0008791C0008791C0008AC
:1000E000791C0008791C0008791C00080000000039
:1000F0000000000000000000000000000000000000
:0C01000000000000000000005FF808F1A3
:10010C0010B5054C237833B9044B13B10448AFF345
:10011C0000800123237010BD50040020000000005B
:10012C007C1C0008084B10B51BB108490848AFF3FC
:10013C0000800848036803B910BD074B002BFBD0A7
:10014C00BDE81040184700BF000000005404002018
:10015C007C1C0008500400200000000080B500AF9B
:10016C00154A154B1B6843F0010313601249124BDF
:10017C005A68124B13404B600F4A0F4B1B6823F00D
:10018C00847323F4803313600B4A0B4B1B6823F4EA
:10019C0080231360084A084B5B6823F4FE0353600A
:1001AC00054B4FF41F029A6000F078F8044B4FF0A7
:1001BC0000629A6000BF80BD001002400000FFF892
:1001CC0000ED00E080B485B000AF0023FB6000239D
:1001DC00BB6000237B602C4B5B6803F00C03FB6063
:1001EC00FB68042B07D0082B09D0002B33D1274BED
:1001FC00274A1A6033E0254B254A1A602FE0224B20
:10020C005B6803F47013BB601F4B5B6803F48033B3
:10021C007B60BB689B0C0233BB607B68002B06D1F8
:10022C00BB681C4A02FB03F3184A136017E0164B19
:10023C005B6803F40033002B06D0BB68154A02FB45
:10024C0003F3124A13600AE0BB68114A02FB03F382
:10025C000E4A136003E00D4B0D4A1A6000BF0A4BA7
:10026C005B6803F0F0031B090B4AD35CDBB2FB6049
:10027C00064B1A68FB6822FA03F3044A136000BFAA
:10028C001437BD4680BC70470010024000000020AF
:10029C0000127A0000093D000400002080B500AF78
:1002AC0000F002F800BF80BD80B483B000AF002323
:1002BC007B6000233B603A4A394B1B6843F4803324
:1002CC001360374B1B6803F400333B607B680133CE
:1002DC007B603B68002B03D17B68B3F5A06FF0D13A
:1002EC002F4B1B6803F40033002B02D001233B601F
:1002FC0001E000233B603B68012B4BD1294A294B81
:10030C001B6843F010031360264A264B1B6823F02E
:10031C0007031360234A234B1B6843F0020313604B
:10032C001F4A1F4B5B6853601D4A1D4B5B68536033
:10033C001B4A1B4B5B6843F480635360184A184B91
:10034C005B6823F47C135360154A154B5B6843F4CC
:10035C00E8135360124A124B1B6843F0807313600E
:10036C0000BF0F4B1B6803F00073002BF9D00C4A35
:10037C000B4B5B6823F003035360094A084B5B6823
:10038C0043F00203536000BF054B5B6803F00C03A2
:10039C00082BF9D100BF0C37BD4680BC704700BF9D
:1003AC00001002400020024080B586B000AFF8601B
:1003BC007A603B600B467B817B89BB827B68DBB2BE
:1003CC00BB753B68DBB2FB7507F114031946F86883
:1003DC0000F082F800BF1837BD4680BD80B582B0F2
:1003EC0000AF78607B682F4A934208D1012104202A
:1003FC0000F0F2FD0021042000F0EEFD4EE07B68E1
:10040C00294A934208D10121082000F0E5FD002182
:10041C00082000F0E1FD41E07B68244A934208D1BA
:10042C000121102000F0D8FD0021102000F0D4FD97
:10043C0034E07B681E4A934208D10121202000F051
:10044C00CBFD0021202000F0C7FD27E07B68194A76
:10045C00934208D10121402000F0BEFD0021402034
:10046C0000F0BAFD1AE07B68134A934208D10121CF
:10047C00802000F0B1FD0021802000F0ADFD0DE0EA
:10048C007B680E4A934209D101214FF4807000F031
:10049C00A3FD00214FF4807000F09EFD00BF0837D3
:1004AC00BD4680BD00080140000C01400010014019
:1004BC000014014000180140001C014000200140C4
:1004CC0080B500AF0121012000F086FD0021012044
:1004DC0000F082FD00BF80BD80B489B000AF7860B1
:1004EC0039600023FB6100233B610023BB610023C7
:1004FC00FB6000237B610023BB603B68DB7803F06F
:10050C000F03FB613B68DB7803F01003002B05D075
:10051C003B689B781A46FB691343FB613B681B885D
:10052C00DBB2002B44D07B681B687B610023BB6172
:10053C0038E00122BB6902FA03F3FB603B681B88BD
:10054C001A46FB6813403B613A69FB689A4226D114
:10055C00BB699B00FB600F22FB6802FA03F3BB60D4
:10056C00BB68DB437A6913407B61FA69FB6802FA6A
:10057C0003F37A6913437B613B68DB78282B05D145
:10058C000122BB699A407B685A6108E03B68DB78C2
:10059C00482B04D10122BB699A407B681A61BB6964
:1005AC000133BB61BB69072BC3D97B687A691A60BD
:1005BC003B681B88FF2B46D97B685B687B610023FB
:1005CC00BB613AE0BB690833012202FA03F3FB601A
:1005DC003B681B881A46FB6813403B613A69FB6811
:1005EC009A4227D1BB699B00FB600F22FB6802FA81
:1005FC0003F3BB60BB68DB437A6913407B61FA6928
:10060C00FB6802FA03F37A6913437B613B68DB787E
:10061C00282B05D1BB69083301229A407B685A61AB
:10062C003B68DB78482B05D1BB69083301229A4023
:10063C007B681A61BB690133BB61BB69072BC1D9EC
:10064C007B687A695A6000BF2437BD4680BC70470E
:10065C0080B483B000AF78607B684FF6FF721A806D
:10066C007B6802229A707B680422DA7000BF0C3718
:10067C00BD4680BC704700BF80B485B000AF7860C9
:10068C000B467B800023FB737B689A687B88134046
:10069C00002B02D00123FB7301E00023FB73FB7BD7
:1006AC0018461437BD4680BC704700BF80B483B079
:1006BC0000AF78607B689B689BB218460C37BD46D0
:1006CC0080BC704780B485B000AF78600B467B80EF
:1006DC000023FB737B68DA687B881340002B02D005
:1006EC000123FB7301E00023FB73FB7B18461437DB
:1006FC00BD4680BC704700BF80B483B000AF78604B
:10070C007B68DB689BB218460C37BD4680BC7047D3
:10071C0080B483B000AF78600B467B807A887B68AE
:10072C001A6100BF0C37BD4680BC704780B483B0E3
:10073C0000AF78600B467B807A887B685A6100BF7B
:10074C000C37BD4680BC704780B483B000AF786076
:10075C000B467B8013467B707B78002B03D07A880A
:10076C007B681A6102E07A887B685A6100BF0C379B
:10077C00BD4680BC704700BF80B483B000AF7860CA
:10078C000B467B807A887B68DA6000BF0C37BD46ED
:10079C0080BC704780B485B000AF78600B467B801E
:1007AC004FF48033FB607B88FA681343FB607B68F3
:1007BC00FA689A617A887B689A617B68FA689A61B0
:1007CC007B689B69FB607B689B69FB6000BF14378F
:1007DC00BD4680BC704700BF80B485B000AF0346F7
:1007EC000A46FB711346BB710023FB600C4B1B6864
:1007FC00FB60FA684FF680731340FB60FB791B01BA
:10080C00FA681343FB60BB79FA681343FB60044A34
:10081C00FB68136000BF1437BD4680BC704700BF37
:10082C000000014080B483B000AF0346FB71044A62
:10083C00FB79136000BF0C37BD4680BC704700BF0E
:10084C001C00204280B487B000AF78600B46FB7070
:10085C0000233B610023FB6000237B610023BB6012
:10086C007B68002B03DA2E4BDB697B6102E02C4B9F
:10087C005B687B617B681B0C03F00F03BB607B68C0
:10088C009BB23B617B6803F44013B3F5401F0AD164
:10089C007B6923F070637B61214A214B5B6823F0F9
:1008AC007063536021E07B6803F48013002B0ED03F
:1008BC000322BB6802FA03F3FB60FB68DB437A6933
:1008CC0013407B617B6943F070637B610DE07B6857
:1008DC005B0D1B013A6902FA03F3DB437A6913409F
:1008EC007B617B6943F070637B61FB78002B08D0E4
:1008FC007B685B0D1B013A6902FA03F37A691343B7
:10090C007B617B68002B03DA054A7B69D36102E0CB
:10091C00034A7B69536000BF1C37BD4680BC7047DF
:10092C000000014090B484B000AF03460A46FB714E
:10093C001346BB710023FB60BB7903F003039B00E0
:10094C000F2202FA03F3FB601649BB799B08DBB25A
:10095C001846144ABB799B08DBB2023352F82320A9
:10096C00FB68DB431A40831C41F823200D48BB79FC
:10097C009B08DBB21C460B4ABB799B08DBB20233EB
:10098C0052F82320F979BB7903F003039B0001FA99
:10099C0003F31A43A31C40F8232000BF1037BD46B5
:1009AC0090BC70470000014080B483B000AF786009
:1009BC00034A7B68136000BF0C37BD4680BC704790
:1009CC00DC00204280B400AF134A134B1B6843F089
:1009DC00010313601049104B5A68104B13404B60C5
:1009EC000D4A0D4B1B6823F0847323F48033136082
:1009FC00094A094B1B6823F480231360064A064BF3
:100A0C005B6823F4FE035360034B4FF41F029A60A0
:100A1C0000BFBD4680BC7047001002400000FFF8CC
:100A2C0080B483B000AF7860134A134B1B6823F477
:100A3C0080331360104A104B1B6823F4802313601F
:100A4C007B68B3F5803F03D0B3F5802F07D00DE062
:100A5C00094A094B1B6843F48033136006E0064ACD
:100A6C00054B1B6843F4A023136000BF00BF0C3779
:100A7C00BD4680BC704700BF0010024080B582B0FC
:100A8C0000AF00233B600023FB710023BB713120BE
:100A9C0000F00EFB0346BB713B6801333B603B68C7
:100AAC00B3F5A06F02D0BB79002BF0D0312000F051
:100ABC00FFFA0346002B02D00123FB7101E0002357
:100ACC00FB71FB7918460837BD4680BD80B485B0F4
:100ADC0000AF0346FB710023FB600A4B1B68FB60F5
:100AEC00FB6823F0F803FB60FB79DB00FA68134327
:100AFC00FB60044AFB68136000BF1437BD4680BC22
:100B0C00704700BF0010024080B483B000AF0346B2
:100B1C00FB71044AFB79136000BF0C37BD4680BCE7
:100B2C00704700BF0000424280B485B000AF7860CF
:100B3C0039600023FB600A4B5B68FB60FB6823F4A5
:100B4C007C13FB607A683B681343FA681343FB60C1
:100B5C00034AFB68536000BF1437BD4680BC704726
:100B6C000010024080B483B000AF0346FB71044A0E
:100B7C00FB79136000BF0C37BD4680BC704700BFCB
:100B8C006000424280B485B000AF78600023FB6007
:100B9C00094B5B68FB60FB6823F00303FB60FA689E
:100BAC007B681343FB60044AFB68536000BF143737
:100BBC00BD4680BC704700BF0010024080B400AF3F
:100BCC00044B5B68DBB203F00C03DBB21846BD468A
:100BDC0080BC70470010024080B485B000AF7860D4
:100BEC000023FB60094B5B68FB60FB6823F0F003A0
:100BFC00FB60FA687B681343FB60044AFB68536034
:100C0C0000BF1437BD4680BC704700BF00100240C7
:100C1C0080B485B000AF78600023FB60094B5B6843
:100C2C00FB60FB6823F4E063FB60FA687B681343AA
:100C3C00FB60044AFB68536000BF1437BD4680BCA0
:100C4C00704700BF0010024080B485B000AF7860E0
:100C5C000023FB60094B5B68FB60FB6823F460536B
:100C6C00FB607B68DB00FA681343FB60034AFB689C
:100C7C00536000BF1437BD4680BC70470010024063
:100C8C0080B483B000AF03460A46FB711346BB71B8
:100C9C00BB79002B08D00C490B4B1B78DAB2FB79D3
:100CAC001343DBB20B7009E00749074B1B78DAB230
:100CBC00FB79DB43DBB21340DBB20B7000BF0C37AC
:100CCC00BD4680BC704700BF0910024080B483B0A1
:100CDC0000AF7860034A7B68136000BF0C37BD46D9
:100CEC0080BC7047D800424280B485B000AF7860B9
:100CFC000023FB60094B5B68FB60FB6823F44043FB
:100D0C00FB60FA687B681343FB60044AFB68536022
:100D1C0000BF1437BD4680BC704700BF00100240B6
:100D2C0080B483B000AF0346FB710C4B00221A70E9
:100D3C000A4B00221A70FB79012B02D0042B04D031
:100D4C0007E0064B01221A7003E0044B05221A70CF
:100D5C0000BF00BF0C37BD4680BC7047201002405E
:100D6C0080B483B000AF0346FB71044AFB79136077
:100D7C0000BF0C37BD4680BC704700BF80044242A8
:100D8C0080B483B000AF78600549054B1A6A7B6864
:100D9C0013430B6200BF0C37BD4680BC704700BFCD
:100DAC000010024080B483B000AF0346FB71044ACC
:100DBC00FB79136000BF0C37BD4680BC704700BF89
:100DCC003C04424280B487B000AF786000237B6162
:100DDC0000233B610023FB600023BB604C4B5B6832
:100DEC0003F00C037B617B69042B07D0082B09D023
:100DFC00002B33D17B68474A1A6033E07B68454A45
:100E0C001A602FE0424B5B6803F470133B61404B5C
:100E1C005B6803F48033FB603B699B0C02333B61E2
:100E2C00FB68002B06D13B693B4A02FB03F27B6853
:100E3C001A6017E0364B5B6803F40033002B06D0C6
:100E4C003B69354A02FB03F27B681A600AE03B6996
:100E5C00304A02FB03F27B681A6003E07B682D4A80
:100E6C001A6000BF2A4B5B6803F0F0037B617B695F
:100E7C001B097B61294A7B6913441B78DBB2BB607D
:100E8C007B681A68BB68DA407B685A60204B5B68E9
:100E9C0003F4E0637B617B691B0A7B611F4A7B69FE
:100EAC0013441B78DBB2BB607B685A68BB68DA40C2
:100EBC007B689A60164B5B6803F460537B617B69BB
:100ECC00DB0A7B61154A7B6913441B78DBB2BB6080
:100EDC007B685A68BB68DA407B68DA600C4B5B68ED
:100EEC0003F440437B617B699B0B7B610C4A7B6900
:100EFC0013441B78DBB2BB607B68DA68BB68B2FB5F
:100F0C00F3F27B681A6100BF1C37BD4680BC70478A
:100F1C000010024000127A0000093D00140000206D
:100F2C002400002080B483B000AF78600B46FB70C7
:100F3C00FB78002B06D00949084B5A697B68134390
:100F4C004B6106E00549054B5A697B68DB4313404E
:100F5C004B6100BF0C37BD4680BC7047001002408F
:100F6C0080B483B000AF78600B46FB70FB78002B2D
:100F7C0006D00949084B9A697B6813438B6106E0DC
:100F8C000549054B9A697B68DB4313408B6100BFB5
:100F9C000C37BD4680BC70470010024080B483B053
:100FAC0000AF78600B46FB70FB78002B06D009492C
:100FBC00084BDA697B681343CB6106E00549054BA6
:100FCC00DA697B68DB431340CB6100BF0C37BD464D
:100FDC0080BC70470010024080B483B000AF7860D2
:100FEC000B46FB70FB78002B06D00949084BDA68DE
:100FFC007B681343CB6006E00549054BDA687B68D8
:10100C00DB431340CB6000BF0C37BD4680BC704740
:10101C000010024080B483B000AF78600B46FB70C8
:10102C00FB78002B06D00949084B1A697B681343DF
:10103C000B6106E00549054B1A697B68DB431340DD
:10104C000B6100BF0C37BD4680BC704700100240DE
:10105C0080B483B000AF0346FB71044AFB79136084
:10106C0000BF0C37BD4680BC704700BF40044242F5
:10107C0080B483B000AF0346FB71044AFB79136064
:10108C0000BF0C37BD4680BC704700BF4C004242CD
:10109C0080B483B000AF0346FB71044AFB79137034
:1010AC0000BF0C37BD4680BC704700BF0710024024
:1010BC0080B487B000AF0346FB710023FB600023B4
:1010CC007B610023FB74FB795B09DBB2FB60FB6883
:1010DC00012B03D1124B1B687B6109E0FB68022BCF
:1010EC0003D10F4B1B6A7B6102E00D4B5B6A7B618A
:1010FC00FB7903F01F03FB607A69FB6822FA03F3A8
:10110C0003F00103002B02D00123FB7401E0002348
:10111C00FB74FB7C18461C37BD4680BC704700BF77
:10112C000010024080B400AF044A044B5B6A43F0E9
:10113C008073536200BFBD4680BC704700100240F4
:10114C0080B485B000AF0346FB710023FB73084BE2
:10115C009A68FB791340002B02D00123FB7301E04A
:10116C000023FB73FB7B18461437BD4680BC7047CD
:10117C000010024080B483B000AF0346FB71044AF8
:10118C00FB79137000BF0C37BD4680BC704700BFA5
:10119C000A10024080B483B000AF78600B46FB703D
:1011AC00FB78002B08D07B681B889BB243F0400374
:1011BC009AB27B681A8007E07B681B889BB223F08D
:1011CC0040039AB27B681A8000BF0C37BD4680BCC6
:1011DC00704700BF80B58AB000AFF8600846114672
:1011EC001A4603467B810B463B811346FB807B8969
:1011FC00FB823B893B83FB883B843B8E7B84BB8E91
:10120C00032B1FD801A252F823F000BF29120008AB
:10121C00331200083D1200084712000800237B839C
:10122C000023BB830FE000237B830123BB830AE0F5
:10123C0002237B830023BB8305E002237B830123F2
:10124C00BB8300E000BF0023BB820023FB8307238A
:10125C00BB8407F114031946F86800F00BF900BFC2
:10126C002837BD4680BD00BF80B483B000AF0346B5
:10127C00FB710B46BB7113467B71FA79BB79134337
:10128C00DAB27B791343DBB243F01003DBB21846BE
:10129C000C37BD4680BC704780B582B000AF78601B
:1012AC000B467B800221064800F09EFB0346002B78
:1012BC0002D07B687A889A8100BF0837BD4680BD12
:1012CC000030014080B500AF10210448FFF72EFA22
:1012DC0010210248FFF71CFA00BF80BD0008014036
:1012EC0080B485B000AF78600023FB6002E0FB683F
:1012FC000133FB607B68642202FB03F2FB689A42B9
:10130C00F5DC00BF1437BD4680BC704780B584B097
:10131C0002AF01210420FFF723FE00210420FFF778
:10132C005BFE1023032210213348FFF73DF81823EE
:10133C00032220213048FFF737F8482300224021B0
:10134C002D48FFF731F81823032280212A48FFF794
:10135C002BF801214FF48050FFF702FE00214FF4CF
:10136C008050FFF739FE0023019380230093002364
:10137C0000224FF482712148FFF72CFF01211F48F6
:10138C0000F080FA01211D48FFF704FF0022202104
:10139C008020FFF769FF0346BB710023FB7100BF80
:1013AC000221164800F020FB0346002BF8D0FB79F5
:1013BC00002B0DD0BB7943F040037B717B799BB242
:1013CC0019460E4800F022FAFB79DB43FB710CE066
:1013DC00BB7923F040037B717B799BB2194607489C
:1013EC0000F014FAFB79DB43FB71FFF76BFF322043
:1013FC00FFF776FFD3E700BF000801400030014043
:10140C0080B582B000AF78607B68174A93420AD1EE
:10141C0001214FF48050FFF7DFFD00214FF4805085
:10142C00FFF7DAFD1CE07B68104A93420AD10121D8
:10143C004FF48040FFF7EEFD00214FF48040FFF7A2
:10144C00E9FD0DE07B680A4A934209D101214FF472
:10145C000040FFF7DFFD00214FF40040FFF7DAFDFD
:10146C0000BF0837BD4680BD003001400038004049
:10147C00003C004080B485B000AF78603960002338
:10148C00FB817B681B88FB81FB8903F44153FB8147
:10149C003B681A883B685B8813439AB23B689B880D
:1014AC0013439AB23B68DB8813439AB23B681B899F
:1014BC0013439AB23B685B8913439AB23B689B898E
:1014CC0013439AB23B68DB8913439AB2FB891343EB
:1014DC00FB817B68FA891A807B689B8B9BB223F417
:1014EC0000639AB27B689A833B681A8A7B681A827B
:1014FC0000BF1437BD4680BC704700BF80B58CB0B0
:10150C0000AF7860396000237B840223FB850023C5
:10151C00BB8501237B8500237B620023FB617B68F9
:10152C009B8B9BB223F47B6323F00F039AB27B68F3
:10153C009A837B6802221A847B689B8B7B843B6832
:10154C009B68022B04D10023BB850223FB8555E04D
:10155C003B689B88002B02D101237B8501E0022391
:10156C007B857B683D4A934203D14FF400337B6209
:10157C0002E04FF480237B6207F108031846FFF763
:10158C0021FCBB68FB613B68DB88B3F5007F0FD1A6
:10159C00FB691A0A13469B0013445B001A463B680E
:1015AC009B68B2FBF3F39BB205339BB27B6212E0F8
:1015BC007B8D5B011A46FB69B3FBF2F213469B0071
:1015CC0013445B001A463B689B68B2FBF3F39BB277
:1015DC0005339BB27B627B6A214AA2FB0323DB08A7
:1015EC007B627B6A9BB203F00103BB85BB8D7A6A7D
:1015FC00D31A5B08FB85BB8D1B02BB85FB8D012BB6
:10160C0002D9FB8DFF2B03D90223FB850023BB855D
:10161C003B68DA88BB8D13439AB2FB8D13439AB2A5
:10162C007B681A843B681A883B6859883B689888A1
:10163C003B689B8903439BB20B439BB213439AB207
:10164C007B8C13439BB243F400637B847B687A8C62
:10165C009A8300BF3037BD4680BD00BF00380040C4
:10166C00CDCCCCCC80B483B000AF78607B6800224A
:10167C001A807B6800225A807B6800229A807B68E3
:10168C000022DA807B6800221A817B6800225A8152
:10169C007B6800229A817B680022DA817B680722B2
:1016AC001A8200BF0C37BD4680BC704780B483B033
:1016BC0000AF78607B6800221A807B6800225A8019
:1016CC007B6800229A807B680022DA807B68022289
:1016DC009A607B6800229A8100BF0C37BD4680BCA3
:1016EC00704700BF80B483B000AF78600B46FB70CE
:1016FC00FB78002B08D07B681B889BB243F040031F
:10170C009AB27B681A8007E07B681B889BB223F037
:10171C0040039AB27B681A8000BF0C37BD4680BC70
:10172C00704700BF80B483B000AF78600B46FB708D
:10173C00FB78002B08D07B689B8B9BB243F48063B7
:10174C009AB27B689A8307E07B689B8B9BB223F4ED
:10175C0080639AB27B689A8300BF0C37BD4680BC0D
:10176C00704700BF80B485B000AF78600B46FB704B
:10177C001346BB700023FB810023BB81FB781B0944
:10178C00DBB2FB81FB89012202FA03F3BB81BB783C
:10179C00002B08D07B689B889AB2BB8913439AB202
:1017AC007B689A8009E07B689B889AB2BB89DB4393
:1017BC009BB213409AB27B689A8000BF1437BD4627
:1017CC0080BC704780B483B000AF78600B467B80E0
:1017DC0013467B707B78002B08D07B689B889AB271
:1017EC007B8813439AB27B689A8009E07B689B885C
:1017FC009AB27B88DB439BB213409AB27B689A8087
:10180C0000BF0C37BD4680BC704700BF80B483B0AE
:10181C0000AF78600B467B807B687A889A8100BF2A
:10182C000C37BD4680BC704780B483B000AF786085
:10183C007B689B899BB218460C37BD4680BC7047B1
:10184C0080B483B000AF78600B467B807B884FF60A
:10185C00FF62934208D07B681B889BB243F4807371
:10186C009AB27B681A8007E07B681B889BB223F4D2
:10187C0080739AB27B681A8000BF0C37BD4680BC5F
:10188C00704700BF80B483B000AF78600B46FB702C
:10189C00FB78002B08D07B689B889BB243F0040339
:1018AC009AB27B689A8007E07B689B889BB223F096
:1018BC0004039AB27B689A8000BF0C37BD4680BC8B
:1018CC00704700BF80B483B000AF78600B467B805C
:1018DC007B681B889BB223F400639AB27B681A80E6
:1018EC007B681B889AB27B8813439AB27B681A80F8
:1018FC0000BF0C37BD4680BC704700BF80B483B0BE
:10190C0000AF78607B681B889BB243F480539AB21B
:10191C007B681A8000BF0C37BD4680BC704700BF87
:10192C0080B483B000AF78600B46FB70FB78002B63
:10193C0008D07B681B889BB243F400539AB27B6837
:10194C001A8007E07B681B889BB223F400539AB281
:10195C007B681A8000BF0C37BD4680BC704700BF47
:10196C0080B485B000AF78600B46FB700023FB8120
:10197C00FB78012B03D07B681B8BFB8102E07B681F
:10198C009B8AFB81FB8918461437BD4680BC704787
:10199C0080B483B000AF78607B681B8A9BB218461A
:1019AC000C37BD4680BC704780B483B000AF786004
:1019BC000B467B807B88B3F5804F08D17B681B88F6
:1019CC009BB243F480439AB27B681A8007E07B6831
:1019DC001B889BB223F480439AB27B681A8000BFA9
:1019EC000C37BD4680BC704780B485B000AF7860C2
:1019FC000B467B800023FB737B681B899AB27B8828
:101A0C0013409BB2002B02D00123FB7301E0002397
:101A1C00FB73FB7B18461437BD4680BC704700BF78
:101A2C0080B483B000AF78600B467B807B88DB434F
:101A3C009AB27B681A8100BF0C37BD4680BC7047D8
:101A4C0080B485B000AF78600B46FB700023FB734D
:101A5C000023BB8100237B8100233B81FB7803F0B7
:101A6C000F03012202FA03F3BB81FB781B09DBB2E3
:101A7C007B817B89012202FA03F37B817B689B8843
:101A8C009AB27B8913403B817B681B899AB2BB89D4
:101A9C0013409BB2002B05D03B89002B02D00123B5
:101AAC00FB7301E00023FB73FB7B18461437BD4628
:101ABC0080BC704780B485B000AF78600B46FB707B
:101ACC000023FB81FB7803F00F03012202FA03F3DE
:101ADC00FB81FB89DB439AB27B681A8100BF143708
:101AEC00BD4680BC704700BF70B50F4E0F4D761BC6
:101AFC00B61018BF002405D0013455F8043B9847A4
:101B0C00A642F9D10A4E0B4D00F0B2F8761BB61076
:101B1C0018BF002406D0013455F8043B9847A64260
:101B2C00F9D170BD70BD00BF9C1C00089C1C000846
:101B3C00A41C00089C1C0008024B13B1024800F0C6
:101B4C0005B8704700000000651B00080023014623
:101B5C001A46184600F014B838B5074D074C2C1B24
:101B6C00A41005D0013C55F8043D9847002CF9D140
:101B7C00BDE8384000F082B8A81C0008A41C00087E
:101B8C002DE9F047254C064625688846D5F848418E
:101B9C0092469946C4B360681F2817DC411C76B185
:101BAC0004EB8003C3F888A0D4F88851012282404A
:101BBC001543022EC4F88851C3F808911ED0831C1B
:101BCC006160002044F82380BDE8F087144B03B318
:101BDC004FF4C870AFF300800446D0B1D5F848314B
:101BEC00002784E888003846C5F848410121C4F82C
:101BFC008871C4F88C71002EE1D0D1E7D4F88C3107
:101C0C001A43C4F88C21DAE705F5A674C5F84841E7
:101C1C00C1E74FF0FF30BDE8F08700BF981C00080B
:101C2C0000000000002103E00B4B5B5843500431D3
:101C3C000A480B4B42189A42F6D30A4A02E0002398
:101C4C0042F8043B084B9A42F9D3FEF787FAFFF7A8
:101C5C004BFFFFF75BFB7047A81C0008000000203F
:101C6C0050040020500400206C040020FEE700000B
:101C7C00F8B500BFF8BC08BC9E467047F8B500BF6D
:081C8C00F8BC08BC9E4670473D
:081C94004300000028000020BD
:081C9C00451B0008310100089E
:041CA4000D01000826
:101CA80000A24A0400000000000000000102030432
:101CB80006070809000000000102030401020304EA
:101CC80006070809020406080000000014030020A3
:101CD8007C030020E4030020000000000000000056
:101CE80000000000000000000000000000000000EC
:101CF800000000000000000000000000941C000824
:101D080000000000000000000000000000000000CB
:101D180000000000000000000000000000000000BB
:101D280000000000000000000000000000000000AB
:101D3800000000000000000000000000000000009B
:101D4800000000000000000000000000000000008B
:101D5800000000000000000000000000000000007B
:101D6800000000000000000000000000000000006B
:101D780001000000000000000E33CDAB34126DE608
:101D8800ECDE05000B000000000000000000000071
:101D9800000000000000000000000000000000003B
:101DA800000000000000000000000000000000002B
:101DB800000000000000000000000000000000001B
:101DC800000000000000000000000000000000000B
:0400000508001C31A2
:00000001FF
